S01700004763634170706C69636174696F6E312E737265635B
S11300000C942A000C94D0010C9447000C944700E3
S11300100C9447000C9447000C9447000C94470040
S11300200C9447000C9447000C94F7010C9447007F
S11300300C9447000C9447000C9447000C94470020
S11300400C9447000C9447000C9447000C94470010
S11300500C94470011241FBECFE5D8E0DEBFCDBF0E
S113006010E0A0E6B0E0E0E9F4E002C005900D92F3
S1130070A036B107D9F720E0A0E6B0E001C01D9298
S1130080AC36B207E1F70E9449000C9446020C9486
S113009000000E94500085E090E00E946100FFCFC4
S11300A061E081E20E94BE0061E082E20E94BE0043
S11300B061E083E20E94BE0061E084E20E94BE002F
S11300C00895CF93DF93EC0153C061E081E20E9475
S11300D0470160E082E20E94470160E083E20E94FF
S11300E0470160E084E20E9447018FE19EE40197AA
S11300F0F1F700C0000060E081E20E94470161E086
S113010082E20E94470160E083E20E94470160E0CE
S113011084E20E9447018FE19EE40197F1F700C059
S1130120000060E081E20E94470160E082E20E94F8
S1130130470161E083E20E94470160E084E20E949B
S113014047018FE19EE40197F1F700C0000060E0F1
S113015081E20E94470160E082E20E94470160E080
S113016083E20E94470161E084E20E9447012197F3
S1130170209709F0AACFDF91CF9108959DEC899F34
S1130180912D1124292F269526952695220F322F5D
S1130190330F330F230F821B282F96959695969530
S11301A0662319F06130E1F108959230A9F018F452
S11301B0913031F008959330D9F0943029F10895B5
S11301C03AB381E090E002C0880F991F2A95E2F7C4
S11301D0809583238ABB089537B381E090E002C001
S11301E0880F991F2A95E2F78095832387BB08958A
S11301F034B381E090E002C0880F991F2A95E2F79A
S11302008095832384BB089531B381E090E002C0DC
S1130210880F991F2A95E2F78095832381BB08955F
S11302209230A1F018F4913031F008959330C9F070
S1130230943011F108953AB381E090E002C0880F40
S1130240991F2A95E2F7832B8ABB089537B381E07F
S113025090E002C0880F991F2A95E2F7832B87BB91
S1130260089534B381E090E002C0880F991F2A9565
S1130270E2F7832B84BB089531B381E090E002C0A0
S1130280880F991F2A95E2F7832B81BB08959DEC73
S1130290899F912D1124292F269526952695220F85
S11302A0322F330F330F230F821B282F96959695E9
S11302B09695662319F06130E1F108959230A9F022
S11302C018F4913031F008959330D9F0943029F135
S11302D008953BB381E090E002C0880F991F2A95EE
S11302E0E2F7809583238BBB089538B381E090E0D7
S11302F002C0880F991F2A95E2F78095832388BB53
S1130300089535B381E090E002C0880F991F2A95C3
S1130310E2F78095832385BB089532B381E090E0B2
S113032002C0880F991F2A95E2F78095832382BB28
S113033008959230A1F018F4913031F0089593307B
S1130340C9F0943011F108953BB381E090E002C00C
S1130350880F991F2A95E2F7832B8BBB089538B336
S113036081E090E002C0880F991F2A95E2F7832B61
S113037088BB089535B381E090E002C0880F991FCF
S11303802A95E2F7832B85BB089532B381E090E090
S113039002C0880F991F2A95E2F7832B82BB089528
S11303A01F920F920FB60F9211242F933F934F93E6
S11303B05F936F937F938F939F93AF93BF93EF93C9
S11303C0FF93E0916000F09161000995FF91EF9136
S11303D0BF91AF919F918F917F916F915F914F9159
S11303E03F912F910F900FBE0F901F9018951F9261
S11303F00F920FB60F9211242F933F934F935F9355
S11304006F937F938F939F93AF93BF93EF93FF93D8
S11304108091620090916300A0916400B0916500A6
S11304200196A11DB11D8093620090936300A09377
S11304306400B0936500409166005091670060913C
S113044068007091690084179507A607B70769F4D7
S1130450E0916A00F0916B0009951092620010928D
S113046063001092640010926500FF91EF91BF91B8
S1130470AF919F918F917F916F915F914F913F9138
S11304802F910F900FBE0F901F901895F894FFCFE7
S9030000FC
